{
  "_format": "hh-sol-artifact-1",
  "contractName": "NFTMarketplace",
  "sourceName": "contracts/NFTMarketplace.sol",
  "abi": [
    {
      "inputs": [],
      "stateMutability": "nonpayable",
      "type": "constructor"
    },
    {
      "anonymous": false,
      "inputs": [
        {
          "indexed": true,
          "internalType": "address",
          "name": "owner",
          "type": "address"
        },
        {
          "indexed": true,
          "internalType": "address",
          "name": "approved",
          "type": "address"
        },
        {
          "indexed": true,
          "internalType": "uint256",
          "name": "tokenId",
          "type": "uint256"
        }
      ],
      "name": "Approval",
      "type": "event"
    },
    {
      "anonymous": false,
      "inputs": [
        {
          "indexed": true,
          "internalType": "address",
          "name": "owner",
          "type": "address"
        },
        {
          "indexed": true,
          "internalType": "address",
          "name": "operator",
          "type": "address"
        },
        {
          "indexed": false,
          "internalType": "bool",
          "name": "approved",
          "type": "bool"
        }
      ],
      "name": "ApprovalForAll",
      "type": "event"
    },
    {
      "anonymous": false,
      "inputs": [
        {
          "indexed": true,
          "internalType": "uint256",
          "name": "tokenId",
          "type": "uint256"
        },
        {
          "indexed": false,
          "internalType": "address",
          "name": "seller",
          "type": "address"
        },
        {
          "indexed": false,
          "internalType": "address",
          "name": "owner",
          "type": "address"
        },
        {
          "indexed": false,
          "internalType": "uint256",
          "name": "price",
          "type": "uint256"
        },
        {
          "indexed": false,
          "internalType": "bool",
          "name": "sold",
          "type": "bool"
        }
      ],
      "name": "MarketItemCreated",
      "type": "event"
    },
    {
      "anonymous": false,
      "inputs": [
        {
          "indexed": true,
          "internalType": "address",
          "name": "from",
          "type": "address"
        },
        {
          "indexed": true,
          "internalType": "address",
          "name": "to",
          "type": "address"
        },
        {
          "indexed": true,
          "internalType": "uint256",
          "name": "tokenId",
          "type": "uint256"
        }
      ],
      "name": "Transfer",
      "type": "event"
    },
    {
      "inputs": [
        {
          "internalType": "address",
          "name": "to",
          "type": "address"
        },
        {
          "internalType": "uint256",
          "name": "tokenId",
          "type": "uint256"
        }
      ],
      "name": "approve",
      "outputs": [],
      "stateMutability": "nonpayable",
      "type": "function"
    },
    {
      "inputs": [
        {
          "internalType": "address",
          "name": "owner",
          "type": "address"
        }
      ],
      "name": "balanceOf",
      "outputs": [
        {
          "internalType": "uint256",
          "name": "",
          "type": "uint256"
        }
      ],
      "stateMutability": "view",
      "type": "function"
    },
    {
      "inputs": [
        {
          "internalType": "uint256",
          "name": "tokenId",
          "type": "uint256"
        }
      ],
      "name": "createMarketSale",
      "outputs": [],
      "stateMutability": "payable",
      "type": "function"
    },
    {
      "inputs": [
        {
          "internalType": "string",
          "name": "tokenURI",
          "type": "string"
        },
        {
          "internalType": "uint256",
          "name": "price",
          "type": "uint256"
        }
      ],
      "name": "createToken",
      "outputs": [
        {
          "internalType": "uint256",
          "name": "",
          "type": "uint256"
        }
      ],
      "stateMutability": "payable",
      "type": "function"
    },
    {
      "inputs": [],
      "name": "fetchItemsListed",
      "outputs": [
        {
          "components": [
            {
              "internalType": "uint256",
              "name": "tokenId",
              "type": "uint256"
            },
            {
              "internalType": "address payable",
              "name": "seller",
              "type": "address"
            },
            {
              "internalType": "address payable",
              "name": "owner",
              "type": "address"
            },
            {
              "internalType": "uint256",
              "name": "price",
              "type": "uint256"
            },
            {
              "internalType": "bool",
              "name": "sold",
              "type": "bool"
            }
          ],
          "internalType": "struct NFTMarketplace.MarketItem[]",
          "name": "",
          "type": "tuple[]"
        }
      ],
      "stateMutability": "view",
      "type": "function"
    },
    {
      "inputs": [],
      "name": "fetchMarketItems",
      "outputs": [
        {
          "components": [
            {
              "internalType": "uint256",
              "name": "tokenId",
              "type": "uint256"
            },
            {
              "internalType": "address payable",
              "name": "seller",
              "type": "address"
            },
            {
              "internalType": "address payable",
              "name": "owner",
              "type": "address"
            },
            {
              "internalType": "uint256",
              "name": "price",
              "type": "uint256"
            },
            {
              "internalType": "bool",
              "name": "sold",
              "type": "bool"
            }
          ],
          "internalType": "struct NFTMarketplace.MarketItem[]",
          "name": "",
          "type": "tuple[]"
        }
      ],
      "stateMutability": "view",
      "type": "function"
    },
    {
      "inputs": [],
      "name": "fetchMyNFTs",
      "outputs": [
        {
          "components": [
            {
              "internalType": "uint256",
              "name": "tokenId",
              "type": "uint256"
            },
            {
              "internalType": "address payable",
              "name": "seller",
              "type": "address"
            },
            {
              "internalType": "address payable",
              "name": "owner",
              "type": "address"
            },
            {
              "internalType": "uint256",
              "name": "price",
              "type": "uint256"
            },
            {
              "internalType": "bool",
              "name": "sold",
              "type": "bool"
            }
          ],
          "internalType": "struct NFTMarketplace.MarketItem[]",
          "name": "",
          "type": "tuple[]"
        }
      ],
      "stateMutability": "view",
      "type": "function"
    },
    {
      "inputs": [
        {
          "internalType": "uint256",
          "name": "tokenId",
          "type": "uint256"
        }
      ],
      "name": "getApproved",
      "outputs": [
        {
          "internalType": "address",
          "name": "",
          "type": "address"
        }
      ],
      "stateMutability": "view",
      "type": "function"
    },
    {
      "inputs": [],
      "name": "getListingPrice",
      "outputs": [
        {
          "internalType": "uint256",
          "name": "",
          "type": "uint256"
        }
      ],
      "stateMutability": "view",
      "type": "function"
    },
    {
      "inputs": [
        {
          "internalType": "address",
          "name": "owner",
          "type": "address"
        },
        {
          "internalType": "address",
          "name": "operator",
          "type": "address"
        }
      ],
      "name": "isApprovedForAll",
      "outputs": [
        {
          "internalType": "bool",
          "name": "",
          "type": "bool"
        }
      ],
      "stateMutability": "view",
      "type": "function"
    },
    {
      "inputs": [],
      "name": "name",
      "outputs": [
        {
          "internalType": "string",
          "name": "",
          "type": "string"
        }
      ],
      "stateMutability": "view",
      "type": "function"
    },
    {
      "inputs": [
        {
          "internalType": "uint256",
          "name": "tokenId",
          "type": "uint256"
        }
      ],
      "name": "ownerOf",
      "outputs": [
        {
          "internalType": "address",
          "name": "",
          "type": "address"
        }
      ],
      "stateMutability": "view",
      "type": "function"
    },
    {
      "inputs": [
        {
          "internalType": "uint256",
          "name": "tokenId",
          "type": "uint256"
        },
        {
          "internalType": "uint256",
          "name": "price",
          "type": "uint256"
        }
      ],
      "name": "resellToken",
      "outputs": [],
      "stateMutability": "payable",
      "type": "function"
    },
    {
      "inputs": [
        {
          "internalType": "address",
          "name": "from",
          "type": "address"
        },
        {
          "internalType": "address",
          "name": "to",
          "type": "address"
        },
        {
          "internalType": "uint256",
          "name": "tokenId",
          "type": "uint256"
        }
      ],
      "name": "safeTransferFrom",
      "outputs": [],
      "stateMutability": "nonpayable",
      "type": "function"
    },
    {
      "inputs": [
        {
          "internalType": "address",
          "name": "from",
          "type": "address"
        },
        {
          "internalType": "address",
          "name": "to",
          "type": "address"
        },
        {
          "internalType": "uint256",
          "name": "tokenId",
          "type": "uint256"
        },
        {
          "internalType": "bytes",
          "name": "data",
          "type": "bytes"
        }
      ],
      "name": "safeTransferFrom",
      "outputs": [],
      "stateMutability": "nonpayable",
      "type": "function"
    },
    {
      "inputs": [
        {
          "internalType": "address",
          "name": "operator",
          "type": "address"
        },
        {
          "internalType": "bool",
          "name": "approved",
          "type": "bool"
        }
      ],
      "name": "setApprovalForAll",
      "outputs": [],
      "stateMutability": "nonpayable",
      "type": "function"
    },
    {
      "inputs": [
        {
          "internalType": "bytes4",
          "name": "interfaceId",
          "type": "bytes4"
        }
      ],
      "name": "supportsInterface",
      "outputs": [
        {
          "internalType": "bool",
          "name": "",
          "type": "bool"
        }
      ],
      "stateMutability": "view",
      "type": "function"
    },
    {
      "inputs": [],
      "name": "symbol",
      "outputs": [
        {
          "internalType": "string",
          "name": "",
          "type": "string"
        }
      ],
      "stateMutability": "view",
      "type": "function"
    },
    {
      "inputs": [
        {
          "internalType": "uint256",
          "name": "tokenId",
          "type": "uint256"
        }
      ],
      "name": "tokenURI",
      "outputs": [
        {
          "internalType": "string",
          "name": "",
          "type": "string"
        }
      ],
      "stateMutability": "view",
      "type": "function"
    },
    {
      "inputs": [
        {
          "internalType": "address",
          "name": "from",
          "type": "address"
        },
        {
          "internalType": "address",
          "name": "to",
          "type": "address"
        },
        {
          "internalType": "uint256",
          "name": "tokenId",
          "type": "uint256"
        }
      ],
      "name": "transferFrom",
      "outputs": [],
      "stateMutability": "nonpayable",
      "type": "function"
    },
    {
      "inputs": [
        {
          "internalType": "uint256",
          "name": "_listingPrice",
          "type": "uint256"
        }
      ],
      "name": "updateListingPrice",
      "outputs": [],
      "stateMutability": "payable",
      "type": "function"
    }
  ],
  "bytecode": "0x60806040526658d15e176280006009553480156200001c57600080fd5b506040518060400160405280601081526020017f4d657461766572736520546f6b656e73000000000000000000000000000000008152506040518060400160405280600481526020017f4d4554540000000000000000000000000000000000000000000000000000000081525081600090816200009a919062000370565b508060019081620000ac919062000370565b50505033600a60006101000a81548173ffffffffffffffffffffffffffffffffffffffff021916908373ffffffffffffffffffffffffffffffffffffffff16021790555062000457565b600081519050919050565b7f4e487b7100000000000000000000000000000000000000000000000000000000600052604160045260246000fd5b7f4e487b7100000000000000000000000000000000000000000000000000000000600052602260045260246000fd5b600060028204905060018216806200017857607f821691505b6020821081036200018e576200018d62000130565b5b50919050565b60008190508160005260206000209050919050565b60006020601f8301049050919050565b600082821b905092915050565b600060088302620001f87fffffffffffffffffffffffffffffffffffffffffffffffffffffffffffffffff82620001b9565b620002048683620001b9565b95508019841693508086168417925050509392505050565b6000819050919050565b6000819050919050565b6000620002516200024b62000245846200021c565b62000226565b6200021c565b9050919050565b6000819050919050565b6200026d8362000230565b620002856200027c8262000258565b848454620001c6565b825550505050565b600090565b6200029c6200028d565b620002a981848462000262565b505050565b5b81811015620002d157620002c560008262000292565b600181019050620002af565b5050565b601f8211156200032057620002ea8162000194565b620002f584620001a9565b8101602085101562000305578190505b6200031d6200031485620001a9565b830182620002ae565b50505b505050565b600082821c905092915050565b6000620003456000198460080262000325565b1980831691505092915050565b600062000360838362000332565b9150826002028217905092915050565b6200037b82620000f6565b67ffffffffffffffff81111562000397576200039662000101565b5b620003a382546200015f565b620003b0828285620002d5565b600060209050601f831160018114620003e85760008415620003d3578287015190505b620003df858262000352565b8655506200044f565b601f198416620003f88662000194565b60005b828110156200042257848901518255600182019150602085019450602081019050620003fb565b868310156200044257848901516200043e601f89168262000332565b8355505b6001600288020188555050505b505050505050565b61410b80620004676000396000f3fe60806040526004361061012a5760003560e01c80636352211e116100ab578063ae677aa31161006f578063ae677aa3146103f9578063b88d4fde14610415578063be9af5361461043e578063c87b56dd1461045a578063e219fc7514610497578063e985e9c5146104b35761012a565b80636352211e146102fb57806370a082311461033857806372b3b6201461037557806395d89b41146103a5578063a22cb465146103d05761012a565b806312e85585116100f257806312e8558514610228578063202e37401461025357806323b872dd1461027e57806342842e0e146102a757806345f8fa80146102d05761012a565b806301ffc9a71461012f57806306fdde031461016c578063081812fc14610197578063095ea7b3146101d45780630f08efe0146101fd575b600080fd5b34801561013b57600080fd5b506101566004803603810190610151919061296d565b6104f0565b60405161016391906129b5565b60405180910390f35b34801561017857600080fd5b506101816105d2565b60405161018e9190612a60565b60405180910390f35b3480156101a357600080fd5b506101be60048036038101906101b99190612ab8565b610664565b6040516101cb9190612b26565b60405180910390f35b3480156101e057600080fd5b506101fb60048036038101906101f69190612b6d565b6106aa565b005b34801561020957600080fd5b506102126107c1565b60405161021f9190612d03565b60405180910390f35b34801561023457600080fd5b5061023d610a20565b60405161024a9190612d34565b60405180910390f35b34801561025f57600080fd5b50610268610a2a565b6040516102759190612d03565b60405180910390f35b34801561028a57600080fd5b506102a560048036038101906102a09190612d4f565b610d16565b005b3480156102b357600080fd5b506102ce60048036038101906102c99190612d4f565b610d76565b005b3480156102dc57600080fd5b506102e5610d96565b6040516102f29190612d03565b60405180910390f35b34801561030757600080fd5b50610322600480360381019061031d9190612ab8565b611082565b60405161032f9190612b26565b60405180910390f35b34801561034457600080fd5b5061035f600480360381019061035a9190612da2565b611133565b60405161036c9190612d34565b60405180910390f35b61038f600480360381019061038a9190612f04565b6111ea565b60405161039c9190612d34565b60405180910390f35b3480156103b157600080fd5b506103ba61122c565b6040516103c79190612a60565b60405180910390f35b3480156103dc57600080fd5b506103f760048036038101906103f29190612f8c565b6112be565b005b610413600480360381019061040e9190612ab8565b6112d4565b005b34801561042157600080fd5b5061043c6004803603810190610437919061306d565b61136e565b005b61045860048036038101906104539190612ab8565b6113d0565b005b34801561046657600080fd5b50610481600480360381019061047c9190612ab8565b611608565b60405161048e9190612a60565b60405180910390f35b6104b160048036038101906104ac91906130f0565b61171a565b005b3480156104bf57600080fd5b506104da60048036038101906104d59190613130565b61190f565b6040516104e791906129b5565b60405180910390f35b60007f80ac58cd000000000000000000000000000000000000000000000000000000007bffffffffffffffffffffffffffffffffffffffffffffffffffffffff1916827bffffffffffffffffffffffffffffffffffffffffffffffffffffffff191614806105bb57507f5b5e139f000000000000000000000000000000000000000000000000000000007bffffffffffffffffffffffffffffffffffffffffffffffffffffffff1916827bffffffffffffffffffffffffffffffffffffffffffffffffffffffff1916145b806105cb57506105ca826119a3565b5b9050919050565b6060600080546105e19061319f565b80601f016020809104026020016040519081016040528092919081815260200182805461060d9061319f565b801561065a5780601f1061062f5761010080835404028352916020019161065a565b820191906000526020600020905b81548152906001019060200180831161063d57829003601f168201915b5050505050905090565b600061066f82611a0d565b6004600083815260200190815260200160002060009054906101000a900473ffffffffffffffffffffffffffffffffffffffff169050919050565b60006106b582611082565b90508073ffffffffffffffffffffffffffffffffffffffff168373ffffffffffffffffffffffffffffffffffffffff1603610725576040517f08c379a000000000000000000000000000000000000000000000000000000000815260040161071c90613242565b60405180910390fd5b8073ffffffffffffffffffffffffffffffffffffffff16610744611a58565b73ffffffffffffffffffffffffffffffffffffffff16148061077357506107728161076d611a58565b61190f565b5b6107b2576040517f08c379a00000000000000000000000000000000000000000000000000000000081526004016107a9906132d4565b60405180910390fd5b6107bc8383611a60565b505050565b606060006107cf6007611b19565b905060006107dd6007611b19565b90506107e96008611b19565b506000808267ffffffffffffffff81111561080757610806612dd9565b5b60405190808252806020026020018201604052801561084057816020015b61082d6128a4565b8152602001906001900390816108255790505b50905060005b84811015610a15573073ffffffffffffffffffffffffffffffffffffffff16600b60006001846108769190613323565b815260200190815260200160002060020160009054906101000a900473ffffffffffffffffffffffffffffffffffffffff1673ffffffffffffffffffffffffffffffffffffffff1603610a025760006001826108d29190613323565b90506000600b60008381526020019081526020016000209050806040518060a0016040529081600082015481526020016001820160009054906101000a900473ffffffffffffffffffffffffffffffffffffffff1673ffffffffffffffffffffffffffffffffffffffff1673ffffffffffffffffffffffffffffffffffffffff1681526020016002820160009054906101000a900473ffffffffffffffffffffffffffffffffffffffff1673ffffffffffffffffffffffffffffffffffffffff1673ffffffffffffffffffffffffffffffffffffffff168152602001600382015481526020016004820160009054906101000a900460ff1615151515815250508486815181106109e5576109e4613357565b5b60200260200101819052506001856109fd9190613323565b945050505b8080610a0d90613386565b915050610846565b508094505050505090565b6000600954905090565b60606000610a386007611b19565b905060008060005b83811015610ae0573373ffffffffffffffffffffffffffffffffffffffff16600b6000600184610a709190613323565b815260200190815260200160002060020160009054906101000a900473ffffffffffffffffffffffffffffffffffffffff1673ffffffffffffffffffffffffffffffffffffffff1603610acd57600183610aca9190613323565b92505b8080610ad890613386565b915050610a40565b5060008267ffffffffffffffff811115610afd57610afc612dd9565b5b604051908082528060200260200182016040528015610b3657816020015b610b236128a4565b815260200190600190039081610b1b5790505b50905060005b84811015610d0b573373ffffffffffffffffffffffffffffffffffffffff16600b6000600184610b6c9190613323565b815260200190815260200160002060020160009054906101000a900473ffffffffffffffffffffffffffffffffffffffff1673ffffffffffffffffffffffffffffffffffffffff1603610cf8576000600182610bc89190613323565b90506000600b60008381526020019081526020016000209050806040518060a0016040529081600082015481526020016001820160009054906101000a900473ffffffffffffffffffffffffffffffffffffffff1673ffffffffffffffffffffffffffffffffffffffff1673ffffffffffffffffffffffffffffffffffffffff1681526020016002820160009054906101000a900473ffffffffffffffffffffffffffffffffffffffff1673ffffffffffffffffffffffffffffffffffffffff1673ffffffffffffffffffffffffffffffffffffffff168152602001600382015481526020016004820160009054906101000a900460ff161515151581525050848681518110610cdb57610cda613357565b5b6020026020010181905250600185610cf39190613323565b945050505b8080610d0390613386565b915050610b3c565b508094505050505090565b610d27610d21611a58565b82611b27565b610d66576040517f08c379a0000000000000000000000000000000000000000000000000000000008152600401610d5d90613440565b60405180910390fd5b610d71838383611bbc565b505050565b610d918383836040518060200160405280600081525061136e565b505050565b60606000610da46007611b19565b905060008060005b83811015610e4c573373ffffffffffffffffffffffffffffffffffffffff16600b6000600184610ddc9190613323565b815260200190815260200160002060010160009054906101000a900473ffffffffffffffffffffffffffffffffffffffff1673ffffffffffffffffffffffffffffffffffffffff1603610e3957600183610e369190613323565b92505b8080610e4490613386565b915050610dac565b5060008267ffffffffffffffff811115610e6957610e68612dd9565b5b604051908082528060200260200182016040528015610ea257816020015b610e8f6128a4565b815260200190600190039081610e875790505b50905060005b84811015611077573373ffffffffffffffffffffffffffffffffffffffff16600b6000600184610ed89190613323565b815260200190815260200160002060010160009054906101000a900473ffffffffffffffffffffffffffffffffffffffff1673ffffffffffffffffffffffffffffffffffffffff1603611064576000600182610f349190613323565b90506000600b60008381526020019081526020016000209050806040518060a0016040529081600082015481526020016001820160009054906101000a900473ffffffffffffffffffffffffffffffffffffffff1673ffffffffffffffffffffffffffffffffffffffff1673ffffffffffffffffffffffffffffffffffffffff1681526020016002820160009054906101000a900473ffffffffffffffffffffffffffffffffffffffff1673ffffffffffffffffffffffffffffffffffffffff1673ffffffffffffffffffffffffffffffffffffffff168152602001600382015481526020016004820160009054906101000a900460ff16151515158152505084868151811061104757611046613357565b5b602002602001018190525060018561105f9190613323565b945050505b808061106f90613386565b915050610ea8565b508094505050505090565b6000806002600084815260200190815260200160002060009054906101000a900473ffffffffffffffffffffffffffffffffffffffff169050600073ffffffffffffffffffffffffffffffffffffffff168173ffffffffffffffffffffffffffffffffffffffff160361112a576040517f08c379a0000000000000000000000000000000000000000000000000000000008152600401611121906134ac565b60405180910390fd5b80915050919050565b60008073ffffffffffffffffffffffffffffffffffffffff168273ffffffffffffffffffffffffffffffffffffffff16036111a3576040517f08c379a000000000000000000000000000000000000000000000000000000000815260040161119a9061353e565b60405180910390fd5b600360008373ffffffffffffffffffffffffffffffffffffffff1673ffffffffffffffffffffffffffffffffffffffff168152602001908152602001600020549050919050565b60006111f66007611e22565b60006112026007611b19565b905061120e3382611e38565b6112188185612011565b611222818461207e565b8091505092915050565b60606001805461123b9061319f565b80601f01602080910402602001604051908101604052809291908181526020018280546112679061319f565b80156112b45780601f10611289576101008083540402835291602001916112b4565b820191906000526020600020905b81548152906001019060200180831161129757829003601f168201915b5050505050905090565b6112d06112c9611a58565b8383612281565b5050565b3373ffffffffffffffffffffffffffffffffffffffff16600a60009054906101000a900473ffffffffffffffffffffffffffffffffffffffff1673ffffffffffffffffffffffffffffffffffffffff1614611364576040517f08c379a000000000000000000000000000000000000000000000000000000000815260040161135b906135d0565b60405180910390fd5b8060098190555050565b61137f611379611a58565b83611b27565b6113be576040517f08c379a00000000000000000000000000000000000000000000000000000000081526004016113b590613440565b60405180910390fd5b6113ca848484846123ed565b50505050565b6000600b600083815260200190815260200160002060030154905080341461142d576040517f08c379a000000000000000000000000000000000000000000000000000000000815260040161142490613662565b60405180910390fd5b33600b600084815260200190815260200160002060020160006101000a81548173ffffffffffffffffffffffffffffffffffffffff021916908373ffffffffffffffffffffffffffffffffffffffff1602179055506001600b600084815260200190815260200160002060040160006101000a81548160ff0219169083151502179055506000600b600084815260200190815260200160002060010160006101000a81548173ffffffffffffffffffffffffffffffffffffffff021916908373ffffffffffffffffffffffffffffffffffffffff1602179055506115116008611e22565b61151c303384611bbc565b600a60009054906101000a900473ffffffffffffffffffffffffffffffffffffffff1673ffffffffffffffffffffffffffffffffffffffff166108fc6009549081150290604051600060405180830381858888f19350505050158015611586573d6000803e3d6000fd5b50600b600083815260200190815260200160002060010160009054906101000a900473ffffffffffffffffffffffffffffffffffffffff1673ffffffffffffffffffffffffffffffffffffffff166108fc349081150290604051600060405180830381858888f19350505050158015611603573d6000803e3d6000fd5b505050565b606061161382611a0d565b60006006600084815260200190815260200160002080546116339061319f565b80601f016020809104026020016040519081016040528092919081815260200182805461165f9061319f565b80156116ac5780601f10611681576101008083540402835291602001916116ac565b820191906000526020600020905b81548152906001019060200180831161168f57829003601f168201915b5050505050905060006116bd612449565b905060008151036116d2578192505050611715565b6000825111156117075780826040516020016116ef9291906136be565b60405160208183030381529060405292505050611715565b61171084612460565b925050505b919050565b3373ffffffffffffffffffffffffffffffffffffffff16600b600084815260200190815260200160002060020160009054906101000a900473ffffffffffffffffffffffffffffffffffffffff1673ffffffffffffffffffffffffffffffffffffffff16146117be576040517f08c379a00000000000000000000000000000000000000000000000000000000081526004016117b590613754565b60405180910390fd5b6009543414611802576040517f08c379a00000000000000000000000000000000000000000000000000000000081526004016117f9906137e6565b60405180910390fd5b6000600b600084815260200190815260200160002060040160006101000a81548160ff02191690831515021790555080600b60008481526020019081526020016000206003018190555033600b600084815260200190815260200160002060010160006101000a81548173ffffffffffffffffffffffffffffffffffffffff021916908373ffffffffffffffffffffffffffffffffffffffff16021790555030600b600084815260200190815260200160002060020160006101000a81548173ffffffffffffffffffffffffffffffffffffffff021916908373ffffffffffffffffffffffffffffffffffffffff16021790555061190060086124c8565b61190b333084611bbc565b5050565b6000600560008473ffffffffffffffffffffffffffffffffffffffff1673ffffffffffffffffffffffffffffffffffffffff16815260200190815260200160002060008373ffffffffffffffffffffffffffffffffffffffff1673ffffffffffffffffffffffffffffffffffffffff16815260200190815260200160002060009054906101000a900460ff16905092915050565b60007f01ffc9a7000000000000000000000000000000000000000000000000000000007bffffffffffffffffffffffffffffffffffffffffffffffffffffffff1916827bffffffffffffffffffffffffffffffffffffffffffffffffffffffff1916149050919050565b611a1681612524565b611a55576040517f08c379a0000000000000000000000000000000000000000000000000000000008152600401611a4c906134ac565b60405180910390fd5b50565b600033905090565b816004600083815260200190815260200160002060006101000a81548173ffffffffffffffffffffffffffffffffffffffff021916908373ffffffffffffffffffffffffffffffffffffffff160217905550808273ffffffffffffffffffffffffffffffffffffffff16611ad383611082565b73ffffffffffffffffffffffffffffffffffffffff167f8c5be1e5ebec7d5bd14f71427d1e84f3dd0314c0f7b2291e5b200ac8c7c3b92560405160405180910390a45050565b600081600001549050919050565b600080611b3383611082565b90508073ffffffffffffffffffffffffffffffffffffffff168473ffffffffffffffffffffffffffffffffffffffff161480611b755750611b74818561190f565b5b80611bb357508373ffffffffffffffffffffffffffffffffffffffff16611b9b84610664565b73ffffffffffffffffffffffffffffffffffffffff16145b91505092915050565b8273ffffffffffffffffffffffffffffffffffffffff16611bdc82611082565b73ffffffffffffffffffffffffffffffffffffffff1614611c32576040517f08c379a0000000000000000000000000000000000000000000000000000000008152600401611c2990613878565b60405180910390fd5b600073ffffffffffffffffffffffffffffffffffffffff168273ffffffffffffffffffffffffffffffffffffffff1603611ca1576040517f08c379a0000000000000000000000000000000000000000000000000000000008152600401611c989061390a565b60405180910390fd5b611cac838383612590565b611cb7600082611a60565b6001600360008573ffffffffffffffffffffffffffffffffffffffff1673ffffffffffffffffffffffffffffffffffffffff1681526020019081526020016000206000828254611d07919061392a565b925050819055506001600360008473ffffffffffffffffffffffffffffffffffffffff1673ffffffffffffffffffffffffffffffffffffffff1681526020019081526020016000206000828254611d5e9190613323565b92505081905550816002600083815260200190815260200160002060006101000a81548173ffffffffffffffffffffffffffffffffffffffff021916908373ffffffffffffffffffffffffffffffffffffffff160217905550808273ffffffffffffffffffffffffffffffffffffffff168473ffffffffffffffffffffffffffffffffffffffff167fddf252ad1be2c89b69c2b068fc378daa952ba7f163c4a11628f55a4df523b3ef60405160405180910390a4611e1d838383612595565b505050565b6001816000016000828254019250508190555050565b600073ffffffffffffffffffffffffffffffffffffffff168273ffffffffffffffffffffffffffffffffffffffff1603611ea7576040517f08c379a0000000000000000000000000000000000000000000000000000000008152600401611e9e906139aa565b60405180910390fd5b611eb081612524565b15611ef0576040517f08c379a0000000000000000000000000000000000000000000000000000000008152600401611ee790613a16565b60405180910390fd5b611efc60008383612590565b6001600360008473ffffffffffffffffffffffffffffffffffffffff1673ffffffffffffffffffffffffffffffffffffffff1681526020019081526020016000206000828254611f4c9190613323565b92505081905550816002600083815260200190815260200160002060006101000a81548173ffffffffffffffffffffffffffffffffffffffff021916908373ffffffffffffffffffffffffffffffffffffffff160217905550808273ffffffffffffffffffffffffffffffffffffffff16600073ffffffffffffffffffffffffffffffffffffffff167fddf252ad1be2c89b69c2b068fc378daa952ba7f163c4a11628f55a4df523b3ef60405160405180910390a461200d60008383612595565b5050565b61201a82612524565b612059576040517f08c379a000000000000000000000000000000000000000000000000000000000815260040161205090613aa8565b60405180910390fd5b806006600084815260200190815260200160002090816120799190613c74565b505050565b600081116120c1576040517f08c379a00000000000000000000000000000000000000000000000000000000081526004016120b890613d92565b60405180910390fd5b6009543414612105576040517f08c379a00000000000000000000000000000000000000000000000000000000081526004016120fc906137e6565b60405180910390fd5b6040518060a001604052808381526020013373ffffffffffffffffffffffffffffffffffffffff1681526020013073ffffffffffffffffffffffffffffffffffffffff16815260200182815260200160001515815250600b60008481526020019081526020016000206000820151816000015560208201518160010160006101000a81548173ffffffffffffffffffffffffffffffffffffffff021916908373ffffffffffffffffffffffffffffffffffffffff16021790555060408201518160020160006101000a81548173ffffffffffffffffffffffffffffffffffffffff021916908373ffffffffffffffffffffffffffffffffffffffff1602179055506060820151816003015560808201518160040160006101000a81548160ff02191690831515021790555090505061223e333084611bbc565b817fb640004f1d14576d0c209e240cad0410e0d8c0c33a09375861fbadae2588a98d33308460006040516122759493929190613db2565b60405180910390a25050565b8173ffffffffffffffffffffffffffffffffffffffff168373ffffffffffffffffffffffffffffffffffffffff16036122ef576040517f08c379a00000000000000000000000000000000000000000000000000000000081526004016122e690613e43565b60405180910390fd5b80600560008573ffffffffffffffffffffffffffffffffffffffff1673ffffffffffffffffffffffffffffffffffffffff16815260200190815260200160002060008473ffffffffffffffffffffffffffffffffffffffff1673ffffffffffffffffffffffffffffffffffffffff16815260200190815260200160002060006101000a81548160ff0219169083151502179055508173ffffffffffffffffffffffffffffffffffffffff168373ffffffffffffffffffffffffffffffffffffffff167f17307eab39ab6107e8899845ad3d59bd9653f200f220920489ca2b5937696c31836040516123e091906129b5565b60405180910390a3505050565b6123f8848484611bbc565b6124048484848461259a565b612443576040517f08c379a000000000000000000000000000000000000000000000000000000000815260040161243a90613ed5565b60405180910390fd5b50505050565b606060405180602001604052806000815250905090565b606061246b82611a0d565b6000612475612449565b9050600081511161249557604051806020016040528060008152506124c0565b8061249f84612721565b6040516020016124b09291906136be565b6040516020818303038152906040525b915050919050565b60008160000154905060008111612514576040517f08c379a000000000000000000000000000000000000000000000000000000000815260040161250b90613f41565b60405180910390fd5b6001810382600001819055505050565b60008073ffffffffffffffffffffffffffffffffffffffff166002600084815260200190815260200160002060009054906101000a900473ffffffffffffffffffffffffffffffffffffffff1673ffffffffffffffffffffffffffffffffffffffff1614159050919050565b505050565b505050565b60006125bb8473ffffffffffffffffffffffffffffffffffffffff16612881565b15612714578373ffffffffffffffffffffffffffffffffffffffff1663150b7a026125e4611a58565b8786866040518563ffffffff1660e01b81526004016126069493929190613fb6565b6020604051808303816000875af192505050801561264257506040513d601f19601f8201168201806040525081019061263f9190614017565b60015b6126c4573d8060008114612672576040519150601f19603f3d011682016040523d82523d6000602084013e612677565b606091505b5060008151036126bc576040517f08c379a00000000000000000000000000000000000000000000000000000000081526004016126b390613ed5565b60405180910390fd5b805181602001fd5b63150b7a0260e01b7bffffffffffffffffffffffffffffffffffffffffffffffffffffffff1916817bffffffffffffffffffffffffffffffffffffffffffffffffffffffff191614915050612719565b600190505b949350505050565b606060008203612768576040518060400160405280600181526020017f3000000000000000000000000000000000000000000000000000000000000000815250905061287c565b600082905060005b6000821461279a57808061278390613386565b915050600a826127939190614073565b9150612770565b60008167ffffffffffffffff8111156127b6576127b5612dd9565b5b6040519080825280601f01601f1916602001820160405280156127e85781602001600182028036833780820191505090505b5090505b6000851461287557600182612801919061392a565b9150600a8561281091906140a4565b603061281c9190613323565b60f81b81838151811061283257612831613357565b5b60200101907effffffffffffffffffffffffffffffffffffffffffffffffffffffffffffff1916908160001a905350600a8561286e9190614073565b94506127ec565b8093505050505b919050565b6000808273ffffffffffffffffffffffffffffffffffffffff163b119050919050565b6040518060a0016040528060008152602001600073ffffffffffffffffffffffffffffffffffffffff168152602001600073ffffffffffffffffffffffffffffffffffffffff168152602001600081526020016000151581525090565b6000604051905090565b600080fd5b600080fd5b60007fffffffff0000000000000000000000000000000000000000000000000000000082169050919050565b61294a81612915565b811461295557600080fd5b50565b60008135905061296781612941565b92915050565b6000602082840312156129835761298261290b565b5b600061299184828501612958565b91505092915050565b60008115159050919050565b6129af8161299a565b82525050565b60006020820190506129ca60008301846129a6565b92915050565b600081519050919050565b600082825260208201905092915050565b60005b83811015612a0a5780820151818401526020810190506129ef565b60008484015250505050565b6000601f19601f8301169050919050565b6000612a32826129d0565b612a3c81856129db565b9350612a4c8185602086016129ec565b612a5581612a16565b840191505092915050565b60006020820190508181036000830152612a7a8184612a27565b905092915050565b6000819050919050565b612a9581612a82565b8114612aa057600080fd5b50565b600081359050612ab281612a8c565b92915050565b600060208284031215612ace57612acd61290b565b5b6000612adc84828501612aa3565b91505092915050565b600073ffffffffffffffffffffffffffffffffffffffff82169050919050565b6000612b1082612ae5565b9050919050565b612b2081612b05565b82525050565b6000602082019050612b3b6000830184612b17565b92915050565b612b4a81612b05565b8114612b5557600080fd5b50565b600081359050612b6781612b41565b92915050565b60008060408385031215612b8457612b8361290b565b5b6000612b9285828601612b58565b9250506020612ba385828601612aa3565b9150509250929050565b600081519050919050565b600082825260208201905092915050565b6000819050602082019050919050565b612be281612a82565b82525050565b6000612bf382612ae5565b9050919050565b612c0381612be8565b82525050565b612c128161299a565b82525050565b60a082016000820151612c2e6000850182612bd9565b506020820151612c416020850182612bfa565b506040820151612c546040850182612bfa565b506060820151612c676060850182612bd9565b506080820151612c7a6080850182612c09565b50505050565b6000612c8c8383612c18565b60a08301905092915050565b6000602082019050919050565b6000612cb082612bad565b612cba8185612bb8565b9350612cc583612bc9565b8060005b83811015612cf6578151612cdd8882612c80565b9750612ce883612c98565b925050600181019050612cc9565b5085935050505092915050565b60006020820190508181036000830152612d1d8184612ca5565b905092915050565b612d2e81612a82565b82525050565b6000602082019050612d496000830184612d25565b92915050565b600080600060608486031215612d6857612d6761290b565b5b6000612d7686828701612b58565b9350506020612d8786828701612b58565b9250506040612d9886828701612aa3565b9150509250925092565b600060208284031215612db857612db761290b565b5b6000612dc684828501612b58565b91505092915050565b600080fd5b600080fd5b7f4e487b7100000000000000000000000000000000000000000000000000000000600052604160045260246000fd5b612e1182612a16565b810181811067ffffffffffffffff82111715612e3057612e2f612dd9565b5b80604052505050565b6000612e43612901565b9050612e4f8282612e08565b919050565b600067ffffffffffffffff821115612e6f57612e6e612dd9565b5b612e7882612a16565b9050602081019050919050565b82818337600083830152505050565b6000612ea7612ea284612e54565b612e39565b905082815260208101848484011115612ec357612ec2612dd4565b5b612ece848285612e85565b509392505050565b600082601f830112612eeb57612eea612dcf565b5b8135612efb848260208601612e94565b91505092915050565b60008060408385031215612f1b57612f1a61290b565b5b600083013567ffffffffffffffff811115612f3957612f38612910565b5b612f4585828601612ed6565b9250506020612f5685828601612aa3565b9150509250929050565b612f698161299a565b8114612f7457600080fd5b50565b600081359050612f8681612f60565b92915050565b60008060408385031215612fa357612fa261290b565b5b6000612fb185828601612b58565b9250506020612fc285828601612f77565b9150509250929050565b600067ffffffffffffffff821115612fe757612fe6612dd9565b5b612ff082612a16565b9050602081019050919050565b600061301061300b84612fcc565b612e39565b90508281526020810184848401111561302c5761302b612dd4565b5b613037848285612e85565b509392505050565b600082601f83011261305457613053612dcf565b5b8135613064848260208601612ffd565b91505092915050565b600080600080608085870312156130875761308661290b565b5b600061309587828801612b58565b94505060206130a687828801612b58565b93505060406130b787828801612aa3565b925050606085013567ffffffffffffffff8111156130d8576130d7612910565b5b6130e48782880161303f565b91505092959194509250565b600080604083850312156131075761310661290b565b5b600061311585828601612aa3565b925050602061312685828601612aa3565b9150509250929050565b600080604083850312156131475761314661290b565b5b600061315585828601612b58565b925050602061316685828601612b58565b9150509250929050565b7f4e487b7100000000000000000000000000000000000000000000000000000000600052602260045260246000fd5b600060028204905060018216806131b757607f821691505b6020821081036131ca576131c9613170565b5b50919050565b7f4552433732313a20617070726f76616c20746f2063757272656e74206f776e6560008201527f7200000000000000000000000000000000000000000000000000000000000000602082015250565b600061322c6021836129db565b9150613237826131d0565b604082019050919050565b6000602082019050818103600083015261325b8161321f565b9050919050565b7f4552433732313a20617070726f76652063616c6c6572206973206e6f7420746f60008201527f6b656e206f776e6572206e6f7220617070726f76656420666f7220616c6c0000602082015250565b60006132be603e836129db565b91506132c982613262565b604082019050919050565b600060208201905081810360008301526132ed816132b1565b9050919050565b7f4e487b7100000000000000000000000000000000000000000000000000000000600052601160045260246000fd5b600061332e82612a82565b915061333983612a82565b9250828201905080821115613351576133506132f4565b5b92915050565b7f4e487b7100000000000000000000000000000000000000000000000000000000600052603260045260246000fd5b600061339182612a82565b91507fffffffffffffffffffffffffffffffffffffffffffffffffffffffffffffffff82036133c3576133c26132f4565b5b600182019050919050565b7f4552433732313a2063616c6c6572206973206e6f7420746f6b656e206f776e6560008201527f72206e6f7220617070726f766564000000000000000000000000000000000000602082015250565b600061342a602e836129db565b9150613435826133ce565b604082019050919050565b600060208201905081810360008301526134598161341d565b9050919050565b7f4552433732313a20696e76616c696420746f6b656e2049440000000000000000600082015250565b60006134966018836129db565b91506134a182613460565b602082019050919050565b600060208201905081810360008301526134c581613489565b9050919050565b7f4552433732313a2061646472657373207a65726f206973206e6f74206120766160008201527f6c6964206f776e65720000000000000000000000000000000000000000000000602082015250565b60006135286029836129db565b9150613533826134cc565b604082019050919050565b600060208201905081810360008301526135578161351b565b9050919050565b7f4f6e6c79206d61726b6574706c616365206f776e65722063616e20757064617460008201527f65206c697374696e672070726963652e00000000000000000000000000000000602082015250565b60006135ba6030836129db565b91506135c58261355e565b604082019050919050565b600060208201905081810360008301526135e9816135ad565b9050919050565b7f506c65617365207375626d6974207468652061736b696e67207072696365206960008201527f6e206f7264657220746f20636f6d706c65746520746865207075726368617365602082015250565b600061364c6040836129db565b9150613657826135f0565b604082019050919050565b6000602082019050818103600083015261367b8161363f565b9050919050565b600081905092915050565b6000613698826129d0565b6136a28185613682565b93506136b28185602086016129ec565b80840191505092915050565b60006136ca828561368d565b91506136d6828461368d565b91508190509392505050565b7f4f6e6c79206974656d206f776e65722063616e20706572666f726d207468697360008201527f206f7065726174696f6e00000000000000000000000000000000000000000000602082015250565b600061373e602a836129db565b9150613749826136e2565b604082019050919050565b6000602082019050818103600083015261376d81613731565b9050919050565b7f5072696365206d75737420626520657175616c20746f206c697374696e67207060008201527f7269636500000000000000000000000000000000000000000000000000000000602082015250565b60006137d06024836129db565b91506137db82613774565b604082019050919050565b600060208201905081810360008301526137ff816137c3565b9050919050565b7f4552433732313a207472616e736665722066726f6d20696e636f72726563742060008201527f6f776e6572000000000000000000000000000000000000000000000000000000602082015250565b60006138626025836129db565b915061386d82613806565b604082019050919050565b6000602082019050818103600083015261389181613855565b9050919050565b7f4552433732313a207472616e7366657220746f20746865207a65726f2061646460008201527f7265737300000000000000000000000000000000000000000000000000000000602082015250565b60006138f46024836129db565b91506138ff82613898565b604082019050919050565b60006020820190508181036000830152613923816138e7565b9050919050565b600061393582612a82565b915061394083612a82565b9250828203905081811115613958576139576132f4565b5b92915050565b7f4552433732313a206d696e7420746f20746865207a65726f2061646472657373600082015250565b60006139946020836129db565b915061399f8261395e565b602082019050919050565b600060208201905081810360008301526139c381613987565b9050919050565b7f4552433732313a20746f6b656e20616c7265616479206d696e74656400000000600082015250565b6000613a00601c836129db565b9150613a0b826139ca565b602082019050919050565b60006020820190508181036000830152613a2f816139f3565b9050919050565b7f45524337323155524953746f726167653a2055524920736574206f66206e6f6e60008201527f6578697374656e7420746f6b656e000000000000000000000000000000000000602082015250565b6000613a92602e836129db565b9150613a9d82613a36565b604082019050919050565b60006020820190508181036000830152613ac181613a85565b9050919050565b60008190508160005260206000209050919050565b60006020601f8301049050919050565b600082821b905092915050565b600060088302613b2a7fffffffffffffffffffffffffffffffffffffffffffffffffffffffffffffffff82613aed565b613b348683613aed565b95508019841693508086168417925050509392505050565b6000819050919050565b6000613b71613b6c613b6784612a82565b613b4c565b612a82565b9050919050565b6000819050919050565b613b8b83613b56565b613b9f613b9782613b78565b848454613afa565b825550505050565b600090565b613bb4613ba7565b613bbf818484613b82565b505050565b5b81811015613be357613bd8600082613bac565b600181019050613bc5565b5050565b601f821115613c2857613bf981613ac8565b613c0284613add565b81016020851015613c11578190505b613c25613c1d85613add565b830182613bc4565b50505b505050565b600082821c905092915050565b6000613c4b60001984600802613c2d565b1980831691505092915050565b6000613c648383613c3a565b9150826002028217905092915050565b613c7d826129d0565b67ffffffffffffffff811115613c9657613c95612dd9565b5b613ca0825461319f565b613cab828285613be7565b600060209050601f831160018114613cde5760008415613ccc578287015190505b613cd68582613c58565b865550613d3e565b601f198416613cec86613ac8565b60005b82811015613d1457848901518255600182019150602085019450602081019050613cef565b86831015613d315784890151613d2d601f891682613c3a565b8355505b6001600288020188555050505b505050505050565b7f5072696365206d757374206265206174206c6561737420312077656900000000600082015250565b6000613d7c601c836129db565b9150613d8782613d46565b602082019050919050565b60006020820190508181036000830152613dab81613d6f565b9050919050565b6000608082019050613dc76000830187612b17565b613dd46020830186612b17565b613de16040830185612d25565b613dee60608301846129a6565b95945050505050565b7f4552433732313a20617070726f766520746f2063616c6c657200000000000000600082015250565b6000613e2d6019836129db565b9150613e3882613df7565b602082019050919050565b60006020820190508181036000830152613e5c81613e20565b9050919050565b7f4552433732313a207472616e7366657220746f206e6f6e20455243373231526560008201527f63656976657220696d706c656d656e7465720000000000000000000000000000602082015250565b6000613ebf6032836129db565b9150613eca82613e63565b604082019050919050565b60006020820190508181036000830152613eee81613eb2565b9050919050565b7f436f756e7465723a2064656372656d656e74206f766572666c6f770000000000600082015250565b6000613f2b601b836129db565b9150613f3682613ef5565b602082019050919050565b60006020820190508181036000830152613f5a81613f1e565b9050919050565b600081519050919050565b600082825260208201905092915050565b6000613f8882613f61565b613f928185613f6c565b9350613fa28185602086016129ec565b613fab81612a16565b840191505092915050565b6000608082019050613fcb6000830187612b17565b613fd86020830186612b17565b613fe56040830185612d25565b8181036060830152613ff78184613f7d565b905095945050505050565b60008151905061401181612941565b92915050565b60006020828403121561402d5761402c61290b565b5b600061403b84828501614002565b91505092915050565b7f4e487b7100000000000000000000000000000000000000000000000000000000600052601260045260246000fd5b600061407e82612a82565b915061408983612a82565b92508261409957614098614044565b5b828204905092915050565b60006140af82612a82565b91506140ba83612a82565b9250826140ca576140c9614044565b5b82820690509291505056fea2646970667358221220b77a1fadfbf17beee644f5b912039ea8eb52d9adb101f9cba54f958c58ef1fe864736f6c63430008110033",
  "linkReferences": {},
  "deployedLinkReferences": {}
}